:100000000C9462000C948A000C948A000C948A0070
:100010000C948A000C948A000C94CF160C948A00DD
:100020000C948A000C948A000C948A000C948A0028
:100030000C948A000C948A000C948A000C948A0018
:100040000C94D3090C948A000C94A1090C947B099C
:100050000C948A000C948A000C948A000C948A00F8
:100060000C948A000C948A000000000023002600F3
:10007000290000000008000201000003040700003E
:1000800000000000000000000000250028002B00F8
:1000900000000000240027002A00040404040404D3
:1000A0000404020202020202030303030303010227
:1000B00004081020408001020408102001020408F6
:1000C0001020D21611241FBECFEFD8E0DEBFCDBF67
:1000D00011E0A0E0B1E0EAE6F3E302C005900D9282
:1000E000AE39B107D9F723E0AEE9B1E001C01D9206
:1000F000AD31B207E1F710E0C2E6D0E004C02197CD
:10010000FE010E949D19C136D107C9F70E9411173F
:100110000C94B3190C940000E6E3F2E0A089B189D5
:1001200082E08C93A485B5851C92A685B7858FEC5B
:100130008C93108EA489B58986E08C93A289B389AB
:100140008C9180618C93A289B3898C9188608C9307
:10015000A289B3898C9180688C930288F389E02D01
:1001600080818F7D8083089590E0FC01E255FF4FF0
:10017000249186569F4FFC018491882399F090E04A
:10018000880F991FFC01E057FF4FA591B491FC0126
:10019000EA57FF4F859194918FB7F894EC91E22B39
:1001A000EC938FBF0895AF92BF92CF92DF92EF9200
:1001B000FF920F931F93CF93DF936C017B018B0111
:1001C000040F151FEB015E01AE18BF08C017D10761
:1001D00059F06991D601ED91FC910190F081E02DEB
:1001E000C6010995892B79F7C501DF91CF911F9140
:1001F0000F91FF90EF90DF90CF90BF90AF90089558
:10020000FC01538D448D252F30E0842F90E0821B1C
:10021000930B541710F0CF96089501970895FC01A1
:10022000918D828D981761F0A28DAE0FBF2FB11DF9
:100230005D968C91928D9F5F9F73928F90E0089551
:100240008FEF9FEF0895FC01918D828D981731F00B
:10025000828DE80FF11D858D90E008958FEF9FEF5F
:100260000895FC01918D228D892F90E0805C9F4F35
:10027000821B91098F739927089586E392E00E946B
:10028000310121E0892B09F420E0822F08950E949A
:100290003D0181110C940000089580E090E0892BCD
:1002A00011F00C9447010895FC01A48DA80FB92FFB
:1002B000B11DA35ABF4F2C91848D90E001968F738E
:1002C0009927848FA689B7892C93A089B1898C91AD
:1002D000837080648C93938D848D981306C00288FC
:1002E000F389E02D80818F7D80830895EF92FF92C6
:1002F0000F931F93CF93DF93EC0181E0888F9B8D49
:100300008C8D98131AC0E889F989808185FF15C002
:100310009FB7F894EE89FF896083E889F989808125
:100320008370806480839FBF81E090E0DF91CF91F4
:100330001F910F91FF90EF900895F62E0B8D10E016
:100340000F5F1F4F0F731127E02E8C8D8E110CC085
:100350000FB607FCFACFE889F989808185FFF5CFD0
:10036000CE010E945401F1CFEB8DEC0FFD2FF11D5A
:10037000E35AFF4FF0829FB7F8940B8FEA89FB890D
:1003800080818062CFCFCF93DF93EC01888D88236B
:10039000B9F0AA89BB89E889F9898C9185FD03C0E8
:1003A000808186FD0DC00FB607FCF7CF8C9185FFCD
:1003B000F2CF808185FFEDCFCE010E945401E9CFBD
:1003C000DF91CF910895833081F028F4813099F046
:1003D0008230A9F008958730A9F08830C9F08430C0
:1003E000B1F4809180008F7D03C0809180008F7771
:1003F00080938000089584B58F7784BD089584B577
:100400008F7DFBCF8091B0008F778093B0000895EF
:100410008091B0008F7DF9CFCF93DF93282F30E00C
:10042000F901EE58FF4F8491F901E255FF4FD49145
:10043000F901E656FF4FC491CC23A1F081110E942F
:10044000E301EC2FF0E0EE0FFF1FE859FF4FA591FD
:10045000B491EC91ED2381E090E009F480E0DF912C
:10046000CF91089580E090E0FACF1F93CF93DF9370
:10047000282F30E0F901EE58FF4F8491F901E25541
:10048000FF4FD491F901E656FF4FC491CC23A9F058
:10049000162F81110E94E301EC2FF0E0EE0FFF1FF9
:1004A000EA57FF4FA591B4918FB7F894EC911111D1
:1004B00008C0D095DE23DC938FBFDF91CF911F91D1
:1004C0000895DE2BF8CF3FB7F8948091B701909153
:1004D000B801A091B901B091BA0126B5A89B05C099
:1004E0002F3F19F00196A11DB11D3FBFBA2FA92FB3
:1004F000982F8827BC01CD01620F711D811D911DB0
:1005000042E0660F771F881F991F4A95D1F708951B
:100510002FB7F8946091B3017091B4018091B50147
:100520009091B6012FBF08958F929F92AF92BF9284
:10053000CF92DF92EF92FF926B017C010E948802C2
:100540004B015C01C80CD91CEA1CFB1C0E948802F0
:10055000681579058A059B0528F0C616D706E806B2
:10056000F906A0F7FF90EF90DF90CF90BF90AF908B
:100570009F908F9008950C949402CF92DF92EF9207
:10058000FF920F931F93811123C00E948802009154
:10059000D5021091D6022091D7023091D802DC0109
:1005A000CB01801B910BA20BB30B82339105A105EC
:1005B000B10570F402E310E020E030E06801790159
:1005C000C81AD90AEA0AFB0AC701B6010E949402B6
:1005D0000E9488026093D5027093D6028093D7025E
:1005E0009093D80281E01F910F91FF90EF90DF90E0
:1005F000CF900895EF92FF920F931F93CF93DF93C5
:1006000000D000D0CDB7DEB786E392E00E940F01A4
:1006100086E392E00E940F018E010F5F1F4F780169
:100620008A3341F0F80181938F0186E392E00E94C2
:100630000F01F6CFC7010E945519182F86E392E0EB
:100640000E940F018053990B8230910520F4682F8E
:10065000812F0E94350286E392E00E940F018A30CA
:1006600011F08D30C1F786E392E00E9423018A30B9
:1006700021F486E392E00E940F010F900F900F90FB
:100680000F90DF91CF911F910F91FF90EF90089500
:1006900084EF91E0A0E0B0E08093E1029093E20269
:1006A000A093E302B093E4021092E5021092E602F6
:1006B0001092E7021092E8028091D9029091DA023A
:1006C000A091DB02B091DC028093DD029093DE0208
:1006D000A093DF02B093E0020E9488026093D902E7
:1006E0007093DA028093DB029093DC0286E392E05F
:1006F0000E942301843611F40C94FA02089586E3D3
:1007000092E00E942301843611F40E94FA020E94B2
:1007100088026093D9027093DA028093DB0290938F
:10072000DC020895FC0101900020E9F73197AF0148
:10073000481B590BBC0186E392E00C94D3008F92C6
:100740009F92AF92BF920F931F93CF93DF93CDB73A
:10075000DEB7A1970FB6F894DEBF0FBECDBF19A2CA
:10076000423008F44AE08E010F5D1F4F842E912C19
:10077000B12CA12CA50194010E947B19E62FB9018F
:10078000CA01EA30F4F4E05DD801EE938D01232B29
:10079000242B252B79F790E080E0109719F0CD01FC
:1007A0000E949203A1960FB6F894DEBF0FBECDBF94
:1007B000DF91CF911F910F91BF90AF909F908F903D
:1007C0000895E95CE1CFCF93DF930E949203EC019F
:1007D00089E191E00E9492038C0F9D1FDF91CF91E0
:1007E00008950C949203CF939091E9029923F1F12B
:1007F000C82F86E392E00E943101811109C085E68D
:10080000CF9108952137310589F126373105C1F39C
:1008100086E392E00E943101882389F386E392E027
:100820000E940F019C01332728363105F9F054F757
:1008300028353105E9F02336310551F781E00E9472
:10084000BD028CE191E00E94F1036C2F70E090E01A
:1008500080E04AE00E949F0383E291E00E94E3036C
:1008600062E370E080E090E00E94BB0283E6C8CFC4
:100870001092E902FBCFCF92DF92EF92FF92CF93DB
:10088000DF93C82F0E9488026B017C018AE291E00D
:100890000E94F1036C2F70E090E080E04AE00E943B
:1008A0009F0381E391E00E94F1034AE0C701B60192
:1008B0000E949F0383E391E00E94F103C3EDD2E025
:1008C0008E819F81A885B985A7019601281B390BC8
:1008D0004A0B5B0BCA01B9014AE00E949F0383E304
:1008E00091E00E94F1036E817F8188859985CA8499
:1008F000DB84EC84FD846C197D098E099F094AE034
:10090000DF91CF91FF90EF90DF90CF900C949F03F9
:10091000CF92DF92EF92FF92CF93DF9300D0CDB7CB
:10092000DEB72091190330911A03CE0101962115EB
:10093000310539F58D5193409A838983C980DA80D6
:100940000D2C000CEE08FF084AE0C701B601F7FEC7
:100950000DC06DE286E392E00E947601662777275C
:10096000CB016C197D098E099F094AE00E949F0303
:100970000F900F90DF91CF91FF90EF90DF90CF908D
:100980000895821B930BE0911B03F0911C0330E050
:1009900020E0309719F4820F931FCECF2E5F3F4F88
:1009A00040815181240F351F0280F381E02DF1CF6A
:1009B000CF92DF92EF92FF92CF93DF930E94880253
:1009C000C090A601D090A701E090A801F090A901E5
:1009D0006C197D098E099F0966397105810591059C
:1009E00008F475C00E9488026093A6017093A70165
:1009F0008093A8019093A90161E070E080E090E00D
:100A00000E94BB020E9488026093D5027093D602B6
:100A10008093D7029093D80285E391E00E94F1037E
:100A20008CE391E00E94F103D0E0C0E0C12CD12C16
:100A3000760120E00CC021E0C216D104E104F104EB
:100A4000C1F38C2D0E940C0221E0892B91F3822F9F
:100A50000D2E01C0880F0A94EAF7C82BDF5FD8304B
:100A600031F03DE0C316D104E104F10469F46C2FC8
:100A700070E090E080E04AE00E949F0383E391E011
:100A80000E94F103D0E0C0E061E070E080E090E01F
:100A90000E94BB024FEFC41AD40AE40AF40A5EE0D3
:100AA000C516D104E104F10431F68CE391E00E9413
:100AB000F1038CE391E00E94F1030E9488048CE32F
:100AC00091E00E94F1038EE391E00E94F1030E9405
:100AD0008802672B682B692B09F458C00E94880292
:100AE000C090A201D090A301E090A401F090A501D4
:100AF0006C157D058E059F0508F457C0C090A201B6
:100B0000D090A301E090A401F090A5019B01AC015D
:100B10002C193D094E095F0969017A013AEFC316A4
:100B2000D104E104F104D0F16093A2017093A30118
:100B30008093A4019093A5010E9448030E9488021B
:100B40006093D5027093D6028093D7029093D80217
:100B500081E00E943B048CE391E00E94F1030E943B
:100B600088024AE00E949F0386E491E00E94E3032A
:100B700065E070E080E090E00E94BB02DF91CF91E1
:100B8000FF90EF90DF90CF900C947F030E9488023B
:100B9000623071058105910508F0A0CFDF91CF91FA
:100BA000FF90EF90DF90CF9008956093A201709333
:100BB000A3018093A4019093A501A0CF64E070E00D
:100BC0008091AA019091AB010E94BD100E94040F78
:100BD000F5CF62E070E08091AA019091AB010E9494
:100BE000BD100E94040FF5CF61E070E08091AA0172
:100BF0009091AB010E94BD100E94040FF5CF0E949E
:100C0000480365E070E080E090E00E94BB026AE08B
:100C100070E080E090E00E94BB0285E68093EA02EB
:100C20008091EA02833609F44DC0853609F040C050
:100C30008091E5029091E602A091E702B091E8026E
:100C40000196A11DB11D8093E5029093E602A09349
:100C5000E702B093E8024091E1025091E202609114
:100C6000E3027091E402452B462B472B21F4892B9C
:100C70008A2B8B2BE9F480E00E94BD02882391F03F
:100C800086E00E943B048CE391E00E94F1034AE07D
:100C900067E070E080E090E00E949F0386E491E0CE
:100CA0000E94E30364EF71E080E090E00E94940210
:100CB0006AE070E080E090E00E94BB0286E00E9463
:100CC000F303ACCF0E947F0397E0892E95E8992E1D
:100CD00004E010E025E6B22EC091AA01D091AB014C
:100CE0000E94170BC880D980C60187709927079783
:100CF00009F4D5C0E0919E01F0919F01958684860C
:100D0000EB81FC81A0919E01B0919F011F96FC9305
:100D1000EE931E97A0919E01B0919F0184819581D1
:100D200051969C938E93509780919E0190919F0134
:100D3000A481B5810C9613969C938E931297809103
:100D40009E0190919F010C9695838483E0919E0172
:100D5000F0919F01CE010296958B848B8A818F5FE3
:100D60008A8361E08FEF9FEF0E94EE0BD12CC12CA4
:100D700066246A94762C0E943C0D672861F18111EB
:100D800002C00E947E0CE0919E01F0919F01C484FC
:100D9000D584A0919E01B0919F01E0919E01F091B8
:100DA0009F0156968C919801281B3109358724871D
:100DB000D1FC10C00FB6F8940F92C880D980C6013C
:100DC00087709927079721F4C601887F99838883C4
:100DD0000F900FBEDD240E94480365E070E080E0C4
:100DE00090E00E94BB026AE070E080E090E00E9428
:100DF000BB02B092EA022601712C612C8091EA02BA
:100E0000833609F453C08536F1F58091E50290915F
:100E1000E602A091E702B091E8020196A11DB11D82
:100E20008093E5029093E602A093E702B093E80274
:100E30004091E1025091E2026091E3027091E4027C
:100E4000452B462B472B21F4892B8A2B8B2BD9F44E
:100E500080E00E94BD02882381F085E00E943B046F
:100E60008CE391E00E94F1034AE0C301B2010E94C9
:100E70009F0386E491E00E94E30364EF71E080E069
:100E800090E00E9494026AE070E080E090E00E94AE
:100E9000BB0285E00E94F3038093EA02AFCFC60154
:100EA000887F99838883712C612C65CF0E947F0392
:100EB000C0FE6EC00E94480365E070E080E090E0F4
:100EC0000E94BB026AE070E080E090E00E94BB02FA
:100ED000B092EA028091EA02833609F44FC0853667
:100EE00009F040C08091E5029091E602A091E702EE
:100EF000B091E8020196A11DB11D8093E502909387
:100F0000E602A093E702B093E8024091E10250911B
:100F1000E2026091E3027091E402452B462B472BDD
:100F200021F4892B8A2B8B2BE9F480E00E94BD02EF
:100F3000882391F082E00E943B048CE391E00E94C0
:100F4000F1034AE061E070E080E090E00E949F03DE
:100F500086E491E00E94E30364EF71E080E090E0BA
:100F60000E9494026AE070E080E090E00E94BB0280
:100F700082E00E94F3038093EA02ACCF0E947F03D9
:100F800086E00E940C0261E0682786E00E9435023C
:100F9000C1FE6EC00E94480365E070E080E090E012
:100FA0000E94BB026AE070E080E090E00E94BB0219
:100FB000B092EA022601712C612C8091EA028336FC
:100FC00009F44CC08536F1F58091E5029091E60276
:100FD000A091E702B091E8020196A11DB11D809396
:100FE000E5029093E602A093E702B093E8024091F5
:100FF000E1025091E2026091E3027091E402452B1C
:10100000462B472B21F4892B8A2B8B2BD9F480E09C
:101010000E94BD02882381F084E00E943B048CE39F
:1010200091E00E94F1034AE0C301B2010E949F03D4
:1010300086E491E00E94E30364EF71E080E090E0D9
:101040000E9494026AE070E080E090E00E94BB029F
:1010500084E00E94F3038093EA02AFCF0E947F03F3
:1010600087E00E940C0261E0682787E00E94350259
:10107000C2FE32CE0E94480365E070E080E090E05E
:101080000E94BB026AE070E080E090E00E94BB0238
:10109000B092EA02F12CE12C8091EA02833609F445
:1010A0004CC08536F1F58091E5029091E602A09161
:1010B000E702B091E8020196A11DB11D8093E502FF
:1010C0009093E602A093E702B093E8024091E10218
:1010D0005091E2026091E3027091E402452B462BAD
:1010E000472B21F4892B8A2B8B2BD9F480E00E948B
:1010F000BD02882381F083E00E943B048CE391E0F1
:101100000E94F1034AE0C701B6010E949F0386E4F2
:1011100091E00E94E30364EF71E080E090E00E94C0
:1011200094026AE070E080E090E00E94BB0283E0FD
:101130000E94F3038093EA02AFCF0E947F0388E00E
:101140000E940C0261E0682788E00E943502C4CD4D
:101150008F929F92AF92BF92CF92DF92EF92FF92C7
:101160000F931F93CF93DF931092150310921603E2
:1011700010921703109218031092D5021092D60203
:101180001092D7021092D80268EB7BE080E090E0EA
:101190000E94BB020E9463024B015C0188EEC82ED4
:1011A00083E0D82EE12CF12C0E94630268197909A2
:1011B0008A099B09683E734081059105A8F321E0E7
:1011C000C21AD108E108F10888EE880E83E0981E63
:1011D000A11CB11CC114D104E104F10429F70E943F
:1011E0008C000E9488026093D5027093D60280938F
:1011F000D7029093D8028DE491E00E94F1036AE057
:1012000070E080E090E00E94BB0281E08093E90200
:101210000E9488026093D5027093D6028093D70211
:101220009093D80285E391E00E94F1038CE391E072
:101230000E94F1038CE391E00E94F1038CE391E0C2
:101240000E94F1030E9488048CE391E00E94F10364
:101250008EE391E00E94F1030E948C0086E00E94E0
:10126000B40087E00E94B40088E00E94B4008BE0E4
:1012700090E00E948415EC01009731F0FC0111927E
:101280001192CF010E94700CD093AB01C093AA01C0
:1012900010E000E021E044E650E06EE571E084EF0C
:1012A00095E00E94A21521E044E650E06BE671E073
:1012B00089EE95E00E94A21521E044E650E068E73F
:1012C00071E08EED95E00E94A21521E044E650E029
:1012D00065E871E08FEF95E00E94A215DF91CF9154
:1012E0001F910F91FF90EF90DF90CF90BF90AF9044
:1012F0009F908F9008951F920F920FB60F92112416
:101300002F933F934F935F936F937F938F939F930D
:10131000AF93BF93EF93FF9386E392E00E94540153
:10132000FF91EF91BF91AF919F918F917F916F91BD
:101330005F914F913F912F910F900FBE0F901F9093
:1013400018951F920F920FB60F9211242F938F931F
:101350009F93EF93FF93E0914602F09147028081C3
:10136000E0914C02F0914D0282FD1BC09081809172
:101370004F028F5F8F7320915002821741F0E091EE
:101380004F02F0E0EA5CFD4F958F80934F02FF9192
:10139000EF919F918F912F910F900FBE0F901F9003
:1013A00018958081F4CF1F920F920FB60F921124DF
:1013B0002F933F938F939F93AF93BF938091B301EC
:1013C0009091B401A091B501B091B6013091B201F4
:1013D00023E0230F2D3758F50196A11DB11D209351
:1013E000B2018093B3019093B401A093B501B0937F
:1013F000B6018091B7019091B801A091B901B09167
:10140000BA010196A11DB11D8093B7019093B80157
:10141000A093B901B093BA01BF91AF919F918F9101
:101420003F912F910F900FBE0F901F90189526E8B7
:10143000230F0296A11DB11DD2CFE091DF01F091E3
:10144000E0018081811107C08FEF9FEF9093D4015D
:101450008093D3010895E091DF01F091E0010580D0
:10146000F681E02D80819181F1CFFC01DB010FB687
:10147000F8940F924091DA015091DB012D913C914B
:1014800011972F3F320711F1818192816091DC0128
:101490007081761749F04817590730F01D921C9259
:1014A00081E00F900FBE0895481B590B4217530758
:1014B000A8F7241B350B2D933C938091DC0180838E
:1014C0008091DA019091DB019283818380E0E9CF02
:1014D000CF93DF93DC011596ED91FC910680F781A7
:1014E000E02DA489B5898685978520893189EC010D
:1014F0003D832C83C089D1899B838A83CF010C963D
:1015000011962D913C9112972817390721F41296C4
:10151000DC93CE931197158A148A2C9121502C9329
:101520002091D701211157C0A285B385848195816F
:1015300026813781EC013D832C83C681D7819B8333
:101540008A83CF01029611962D913C91129728170C
:10155000390721F41296DC93CE93119713861286E5
:101560002C9121502C93C689209132022C1710F413
:10157000C093320229E02C9FE0011124C25FDD4FAD
:101580000980DA81C02DD583C4834C815D81578366
:101590004683AC81BD8113969C938E9312979D8355
:1015A0008C83A689A29FD0011124A25FBD4FB3876F
:1015B000A2878C918F5F8C93A0919E01B0919F0127
:1015C000968956968C91891730F581E08093AE010B
:1015D000DF91CF910895A091F401B091F501B78703
:1015E000A68714962D913C911597318B208B1496DC
:1015F000CD91DC9115979B838A8315969C938E934E
:10160000149783EF91E0958B848B8091F3018F5F2A
:101610008093F301D1CF80E0DBCF0FB6F8940F9227
:101620008091DA019091DB010F900FBE08958091B7
:10163000D7018F5F8093D70108950FB6F8940F926A
:10164000FC01928D0F900FBE81E0911180E0089512
:10165000EF92FF920F931F93CF93DF93EC010FB69E
:10166000F8940F921E8D7C0181E1E80EF11C01E0DF
:101670001116D4F08FEF8E8F0F900FBE0FB6F89427
:101680000F921D8D7E0188E0E80EF11C01E011161D
:10169000B4F08FEF8D8F0F900FBEDF91CF911F9120
:1016A0000F91FF90EF9008958989882319F3C7015E
:1016B0000E94680A81110093AE011150D9CF88852C
:1016C000882339F3C7010E94680A81110093AE0193
:1016D0001150DDCFCF93DF93FC01A085B1858281CE
:1016E000938124813581EC013D832C83C481D58194
:1016F0009B838A8311968D919C9112978E179F07D9
:1017000021F41296DC93CE931197118610868C915A
:1017100081508C938C91DF91CF9108950F931F93FB
:10172000CF93DF938C01FB0180819181D8011396C7
:101730008F3F9807F1F4E801AF81B88512968D913B
:101740009C91139793838283EC01FD83EC83B58393
:10175000A4831396FC93EE93129711870087F801E8
:1017600080818F5F8083DF91CF911F910F910895CA
:10177000D90112962D913C911397E9014881598125
:1017800084179507A8F7DACFFC01738362839187EA
:1017900080874617570790F0421B530B8485958529
:1017A00048175907C8F4BF016E5F7F4F8091BB0196
:1017B0009091BC010E948E0B80E008954217530760
:1017C00018F46217730740F4BF016E5F7F4F80917A
:1017D000BD019091BE01EECF81E00895FF920F937D
:1017E0001F93CF93DF93EC01F62E0091DA01109155
:1017F000DB0180919E0190919F0102960E946A0BED
:10180000CF3FDC07E9F5FF20D9F1E091E201F0914B
:10181000E301A0919E01B0919F011596FC93EE9378
:101820001497A0919E01B0919F0184819581179694
:101830009C938E93169780919E0190919F01A48115
:10184000B581029613969C938E93129780919E0178
:1018500090919F01029695838483E0919E01F0917F
:101860009F0181EE91E0938782878091E1018F5FF4
:101870008093E101DF91CF911F910F91FF90089527
:10188000C00FD11FE0919E01F0919F01D383C283CD
:1018900060919E0170919F01C017D10768F48091FB
:1018A000DD019091DE016E5F7F4FDF91CF911F913F
:1018B0000F91FF900C948E0B8091DF019091E001CD
:1018C0006E5F7F4F0E948E0B8091D3019091D40167
:1018D000C817D90778F6D093D401C093D301CACFE3
:1018E000FC010396928381832FEF3FEF34832383A0
:1018F0009683858390878783108208950F920FB611
:10190000F8940F921F9211242F923F924F925F9260
:101910006F927F928F929F92AF92BF92CF92DF92FF
:10192000EF92FF920F931F932F933F934F935F93E9
:101930006F937F938F939F93AF93BF93CF93DF93D7
:10194000EF93FF93A0919E01B0919F010DB60D9270
:101950000EB60D928091D701882321F081E080930B
:10196000AE015FC01092AE01A0919E01B0919F01A7
:10197000E0919E01F0919F012D913C918789908D7E
:1019800082179307A8F080919E0190919F0180910A
:101990009E0190919F01259A2D9A2FEF87EA91E65B
:1019A000215080409040E1F700C000001D9AF5CF23
:1019B0002091320289E001C02150422F50E0849FE3
:1019C000F001859FF00D1124E25FFD4F9081992376
:1019D00099F3A181B28112960D90BC91A02DB28392
:1019E000A183289FC00111248F5E9D4FA817B907BE
:1019F00029F412968D919C919283818389E0849F32
:101A0000F001859FF00D1124E25FFD4F0180F2810E
:101A1000E02D8681978190939F0180939E01209372
:101A20003202A0919E01B0919F01CD91CDBFDD9179
:101A3000DEBFFF91EF91DF91CF91BF91AF919F9169
:101A40008F917F916F915F914F913F912F911F9156
:101A50000F91FF90EF90DF90CF90BF90AF909F904D
:101A60008F907F906F905F904F903F902F901F903E
:101A70000F900FBE0F9008958F929F92BF92CF92BA
:101A8000DF92EF92FF920F931F93CF93DF930FB6E6
:101A9000F8940F928091D70181508093D701809163
:101AA000D701882379F080E00F900FBEDF91CF91AE
:101AB0001F910F91FF90EF90DF90CF90BF909F907C
:101AC0008F90089580913502882369F3E090F801A2
:101AD000F090F901F0E0E0E039E041E08091F301BD
:101AE00081115EC0EF2B11F00E941D0AE090AC0145
:101AF000F090AD01E114F10409F47DC189E0D82E24
:101B0000CC24C3940FEF1FEF8091D701811161C1E5
:101B1000C091DA01D091DB014E018FEF881A980A4B
:101B20009092DB018092DA0181149104B9F48091E2
:101B3000DF019091E0012091DD013091DE013093D1
:101B4000E0012093DF019093DE018093DD0180911D
:101B5000DC018F5F8093DC010E941D0A8091D3011C
:101B60009091D401B12C8816990608F026C1E09115
:101B70009E01F0919F01E689DE9EF0011124E25F53
:101B8000FD4F8081823010F0BB24B3948091AE0170
:101B9000811103C0BB2009F425C1C092AE0122C14E
:101BA000D7011696ED91FC91A489B5896685778554
:101BB00080899189EB019D838C8380899189EC01D7
:101BC0007B836A83BF01645F7F4F11960D911C91E7
:101BD00012970617170721F412969C938E9311976C
:101BE000158A148A8C9181508C93A285B385848147
:101BF000958166817781EC017D836C836681778135
:101C0000EB019B838A83CF01029611960D911C9163
:101C100012970817190721F412967C936E93119767
:101C2000138612862C9121502C93A6892091320282
:101C30002A1710F4A09332023A9FD0011124A25F18
:101C4000BD4F11960D90BC91A02DB583A483149621
:101C50006D917C9115977783668314966D917C9135
:101C60001597EB019B838A8315969C938E9314970B
:101C70009689939FD0011124A25FBD4FB387A2879D
:101C80008C918F5F8C93A0919E01B0919F0156968D
:101C90008C91981708F422CF4093AE011FCFE091AA
:101CA000DF01F091E0010580F681E02D0680F781EB
:101CB000E02D828193818816990628F49093D401AF
:101CC0008093D30154CFC285D385848195812681A9
:101CD0003781DC0115963C932E931497268137812A
:101CE000D90113969C938E931297CF010296498146
:101CF0005A814817590711F43A83298313861286AB
:101D0000288121502883A489B5891097F9F0268568
:101D1000378540895189E9015D834C834089518928
:101D2000EA013B832A8311966D917C9112979F0162
:101D3000245F3F4F6217730721F412965C934E9312
:101D40001197158A148A2C9121502C93A6892091E1
:101D500032022A1710F4A0933202DA9ED001112425
:101D6000A25FBD4F11960D90BC91A02DB583A483A9
:101D700014962D913C9115973783268314962D91B7
:101D80003C911597E9019B838A8315969C938E93CA
:101D9000149796899D9DD0011124A25FBD4FB387F2
:101DA000A2878C918F5F8C93E0919E01F0919F01AF
:101DB0008689981710F0BB24B394E091DF01F0916D
:101DC000E001808181116BCF1093D4010093D30186
:101DD000CECE8091AC019091AD0101969093AD0172
:101DE0008093AC01D1E0ED1AF10809F08DCE10928C
:101DF000AD011092AC018091AE01882309F453CE5D
:101E00000E947E0C81E050CE0E94170B60E08FE1B3
:101E100090E00E94EE0B0E943C0D811102C00E94D6
:101E20007E0C0895AF92BF92CF92DF92EF92FF9215
:101E30000F931F93CF93DF9300D000D01F92CDB7A5
:101E4000DEB78C017B011D821C8280E0680198E076
:101E5000C90ED11C0FB6F8940F92D8015A962C9146
:101E60005A975B969C915B97291708F0B0C05A96D9
:101E7000DC905A975C964C915C9741118DC08D9186
:101E80009C91892B11F080E00AC0F801E480F58074
:101E9000E114F10439F580E0F80115821482D3943D
:101EA000D8015A96DC925A9751969C91992321F029
:101EB000C80141960E94680A81110E947E0C0F9011
:101EC0000FBE81E00F900F900F900F900F90DF9159
:101ED000CF911F910F91FF90EF90DF90CF90BF9027
:101EE000AF900895D70192968C91929781509296D7
:101EF0008C93929756962C91569791969C91291770
:101F000051F28111C8CF5701B2E0AB0EB11CC5012F
:101F10000E946A0BF70181A1868B482F50E024E0D4
:101F200030E0241B350B35872487909132029817B7
:101F300010F48093320289E0849FD001859FB00D18
:101F40001124A25FBD4F11960D90BC91A02DF701F9
:101F5000B583A48314962D913C91159737832683DE
:101F60001496ED91FC911597B382A2821596BC92BE
:101F7000AE921497D7015696EC915697E89FF001D0
:101F80001124E25FFD4F1B96FC93EE931A9780811C
:101F90008F5F808381E080CF50E0B70112968D91F2
:101FA0009C910E94A319F801848D22813381820FB4
:101FB000932F911D93838283248135818217930708
:101FC00008F461CF80819181938382835CCF2C81DF
:101FD0003D81232B21F40F900FBE80E073CF811140
:101FE00009C08091DC0189838091DA019091DB0145
:101FF0009B838A830F900FBE0E94170B0FB6F89435
:102000000F92F801858D8F3F09F4158ED8015E96E9
:102010008C915E978F3F11F45E961C920F900FBECD
:10202000BE016C5F7F4FCE0101960E94350A81117F
:102030002AC00FB6F8940F92F801928D838D0F90FD
:102040000FBE98131AC0AC80BD8060919E01709144
:102050009F01645F7F4FC6010E948E0B61E0C50146
:102060000E94EE0BC8010E94280B0E943C0D8111BA
:1020700002C00E947E0C81E0EDCEC8010E94280BB8
:102080000E943C0DF8CFC8010E94280B0E943C0D15
:10209000A4CFCF93DF9300D000D01F92CDB7DEB78F
:1020A0009C018091D8019091D9010097B9F01982D3
:1020B0007B836A833D832C8320913402BE016F5F52
:1020C0007F4F21112091D7010E94120F0F900F9086
:1020D0000F900F900F90DF91CF91089580E0F6CF91
:1020E000EF92FF920F931F93CF93DF93E091BD0187
:1020F000F091BE018081811113C08091BB0190914C
:10210000BC019093BE018093BD01F093BC01E093AC
:10211000BB01DF91CF911F910F91FF90EF90089538
:102120000580F681E02D00811181C681D7817E0175
:1021300082E0E80EF11CC7010E946A0BE889F98968
:10214000CE0109958A8982FFD1CF8C859D85800F2C
:10215000911F0817190760F49B838A83D987C88762
:10216000B7018091BD019091BE010E948E0BBECF40
:10217000B801CE010E944910B9CFAF92BF92CF9261
:10218000DF92EF92FF920F931F93CF93DF935C0147
:102190007B018C010B5F1F4F0E94170BD501179617
:1021A000ED91FC9118976D917C9111976E297F2983
:1021B0006D937C9390E080E069E071E0D5012D9112
:1021C0003C911197E017F107B1F480959095822327
:1021D00093238D939C930E943C0DE5018881998106
:1021E000DF91CF911F910F91FF90EF90DF90CF90F3
:1021F000BF90AF90089542815381E080F180D70174
:10220000BB276D01C222D322F2FC04C0CD2829F4E1
:10221000FA01D4CFAC15BD05D9F7F0FE02C08A2B68
:102220009B2B326831832083A681B781208531853D
:10223000E480F580EA01FD82EC82E480F580E7012C
:102240005B834A83E901C980DA80EC15FD0511F44E
:10225000FA82E98211861086E901E881E150E8837B
:102260001A96ED91FC911B9714962D913C91159720
:102270001696ED90FC901797E901FD82EC82169678
:10228000ED90FC901797E7013B832A839D012E5F19
:102290003F4FC180D280C216D30611F4F282E18290
:1022A0001B961C921E921A97F080FA94F082569612
:1022B000EC915697F0913202FE1710F4E09332023F
:1022C0006E9FF0011124E25FFD4F0180F281E02D4D
:1022D0001596FC93EE931497E480F5801796FC9284
:1022E000EE921697E480F580E7013B832A833583DD
:1022F000248356963C915697369FF0011124E25F55
:10230000FD4F1B96FC93EE931A9720812F5F20833D
:10231000E0919E01F0919F012689231708F078CF64
:102320007093AE0175CF0F920FB6F8940F921F9273
:1023300011242F923F924F925F926F927F928F92D1
:102340009F92AF92BF92CF92DF92EF92FF920F9344
:102350001F932F933F934F935F936F937F938F932D
:102360009F93AF93BF93CF93DF93EF93FF93A0918E
:102370009E01B0919F010DB60D920EB60D9213BE47
:102380008091D7018111F9C08091DA019091DB0130
:1023900001969093DB018093DA01009781F52091FB
:1023A000DF013091E0014091DD015091DE01509359
:1023B000E0014093DF013093DE012093DD012091A5
:1023C000DC012F5F2093DC01E091DF01F091E0015F
:1023D0002081211107C02FEF3FEF3093D4012093CC
:1023E000D3010DC0E091DF01F091E0010580F6819D
:1023F000E02D208131813093D4012093D3012091AD
:10240000D3013091D4018217930710F420E0A1C0CA
:1024100020E039E0D32EE091DF01F091E00130813E
:10242000311107C08FEF9FEF9093D4018093D301B8
:1024300090C0E091DF01F091E0010580F681E02D90
:102440000680F781E02D428153818417950728F497
:102450005093D4014093D3017CC0A285B3854481BD
:10246000558166817781EA017D836C8366817781FE
:10247000EB015B834A83AF014E5F5F4F11960D9175
:102480001C9112970417150721F412967C936E93F2
:102490001197138612863C9131503C93A489B589DB
:1024A0001097F9F06685778500891189EB011D8306
:1024B0000C8300891189E8017B836A831196ED9072
:1024C000FC901297BF01645F7F4FE616F70621F478
:1024D00012961C930E931197158A148A3C913150D1
:1024E0003C93A689309132023A1710F4A09332023D
:1024F000DA9ED0011124A25FBD4F11960D90BC91C0
:10250000A02DB583A48314966D917C911597778344
:10251000668314966D917C911597EB015B834A83DA
:1025200015965C934E93149746894D9DD0011124C6
:10253000A25FBD4FB387A2873C913F5F3C93E09180
:102540009E01F0919F013689431708F464CF21E082
:1025500062CFE0919E01F0919F01E689D9E0ED9F65
:10256000F0011124E25FFD4F8081823008F021E00C
:102570008091AE0181110EC00AC08091AC01909192
:10258000AD0101969093AD018093AC016AC0222306
:1025900009F467C08091D701882321F081E08093FE
:1025A000AE015FC01092AE01A0919E01B0919F015B
:1025B000E0919E01F0919F012D913C918789908D32
:1025C00082179307A8F080919E0190919F018091BE
:1025D0009E0190919F01259A2D9A2FEF87EA91E60F
:1025E000215080409040E1F700C000001D9AF5CFD7
:1025F0002091320289E001C02150422F50E0849F97
:10260000F001859FF00D1124E25FFD4F9081992329
:1026100099F3A181B28112960D90BC91A02DB28345
:10262000A183289FC00111248F5E9D4FA817B90771
:1026300029F412968D919C919283818389E0849FE5
:10264000F001859FF00D1124E25FFD4F0180F281C2
:10265000E02D8681978190939F0180939E01209326
:102660003202A0919E01B0919F01CD91CDBFDD912D
:10267000DEBFFF91EF91DF91CF91BF91AF919F911D
:102680008F917F916F915F914F913F912F911F910A
:102690000F91FF90EF90DF90CF90BF90AF909F9001
:1026A0008F907F906F905F904F903F902F901F90F2
:1026B0000F900FBE0F900895CF93DF93009751F0C6
:1026C000EC010E94170BCE010E94CC18DF91CF9134
:1026D0000C943C0DDF91CF910895CF93DF93CDB74C
:1026E000DEB72A970FB6F894DEBF0FBECDBFE091DC
:1026F000BD01F091BE011081F12CE12C112329F0D4
:102700000580F681E02DE080F1800E94170B0E9489
:102710000D0B6C018091B0019091B101C816D906E2
:1027200008F07BC00E947010D092B101C092B0013D
:102730000E943C0D0091D8011091D9011A8619868A
:1027400080E06801B1E1CB0ED11C0FB6F8940F9276
:10275000F801F28CFF2009F441C1448D4423C1F0FB
:1027600050E086819781840F951F9783868324810B
:1027700035818217930720F080819181978386832A
:10278000D80116966D917C91CE0101960E94A319F5
:10279000FA94F801F28E8085882339F0C8010896F2
:1027A0000E94680A81110E947E0C0F900FBED98092
:1027B000D7FCC0CF0C811D81F80182859385892BC0
:1027C00021F0C80102960E946A0B0E940D0B7C0149
:1027D0008091B0019091B101E816F90610F40E94C1
:1027E0007010F092B101E092B001F9E0FD1508F42B
:1027F000A1CFED2DDD0CFF0BED5FFB4ED801529606
:102800008C910C949D19B114B114B114E914D41421
:10281000E314B114B114E914D414D092B101C092EC
:10282000B001112399F1CE14DF04B8F10E943C0DE0
:10283000E091BD01F091BE010580F681E02D068199
:102840001781C80102960E946A0BD80152968C919A
:10285000529782FF17C01C966D917C916E0D7F1D63
:102860009701A601C8010E94C40B882321F0B7017B
:10287000C8010E944910D8015096ED91FC91C80101
:10288000099558CF8E7FF801828BF5CFE091BB017F
:10289000F091BC01808161E0811160E00091D8017C
:1028A0001091D9010FB6F8940F92F801858D8F3FE2
:1028B00009F4158ED8015E968C915E978F3F11F4C6
:1028C0005E961C920F900FBEF801828D81113FC061
:1028D0000288F389E02DA0919E01B0919F011F967F
:1028E000FC93EE931E97A0919E01B0919F0184816D
:1028F000958151969C938E93509780919E019091D3
:102900009F01A481B5810C9613969C938E93129788
:1029100080919E0190919F010C9695838483E09114
:102920009E01F0919F01C8014196958B848BD8013F
:1029300051968C9151978F5F51968C93C7018C194A
:102940009D09662311F08FEF9FEF0E94EE0BC801E7
:102950000E94280B0E943C0D8111ECCE0E947E0C3F
:10296000E9CE8160F801828BCA80DB806485758541
:102970006C0D7D1D9601A701C8010E94C40B882320
:1029800009F4D8CED8015096ED91FC91C801099573
:10299000F801828982FFCECE648575856C0D7D1D20
:1029A000C8010E944910C6CE8160F801828B6A81FD
:1029B0007B81758764876E0D7F1D9701A701C80114
:1029C0000E94C40BB7CE81FD04C0C8010E945C13F5
:1029D000B1CE8E7FD80152968C93ACCE29853A85A4
:1029E000232B19F40F900FBE82CE811109C0809164
:1029F000DC018E838091DA019091DB0198878F83CF
:102A00000F900FBE0E94170B0FB6F8940F92D801CB
:102A10005D968C915D978F3F11F45D961C92F80145
:102A2000868D8F3F09F4168E0F900FBEBE01675F33
:102A30007F4FCE0106960E94350A811125C0C8013C
:102A40000E941D0B8823D1F0E984FA8460919E01D5
:102A500070919F01645F7F4FC6010E948E0B61E001
:102A6000C7010E94EE0BC8010E94280B0E943C0D7A
:102A7000811102C00E947E0C81E067CEC8010E94D5
:102A8000280B0E943C0DF8CFC8010E94280B0E9421
:102A90003C0DC8010E941D0B882371F328CE00E075
:102AA00010E08091AF0181110EC080910E02823042
:102AB00010F00E947E0C0E94D8040115110589F3C4
:102AC0000E944701EECF0FB6F8940F92E091EF010C
:102AD000F091F001C681D781CE0102960E946A0B67
:102AE000809135028150809335028091AF018150F1
:102AF0008093AF010F900FBE8F89988D0E945C1359
:102B0000CE010E945C13CDCFCF93DF93EC010E94E6
:102B1000170BCE010E943018EC010E943C0D20974B
:102B200069F4259A2D9A2FEF80E792E0215080409A
:102B30009040E1F700C000001D9AF5CFCE01DF9173
:102B4000CF9108957F928F929F92AF92BF92CF9232
:102B5000DF92EF92FF920F931F93CF93DF93982E04
:102B6000A92E762E872E7A01B22ECA010E948415D4
:102B70006C01892B09F4F2C088E290E00E94841570
:102B8000EC01892B09F4E7C0D88ECF8AA70165EA4A
:102B900070E0C6010E94AC1981E0E81AF108EF89E3
:102BA000F88DEE0DFF1D672D782DCE0149969B0106
:102BB000285F3F4FDB014D91BD01DC014D93CD01FD
:102BC000AB0141505109DA014C91442319F06217CD
:102BD000730781F718A2BE8AB9A21AA21B861A86A9
:102BE0001D8A1C8AD987C88784E090E08B199109D7
:102BF0009D878C87DB8BCA8B84E09E012D5D3F4FC8
:102C0000D9011D928A95E9F71FA29082DF011197E1
:102C1000AC9211971C92119780E88C9311971C929B
:102C200057971C9211971C92B397F983E88301156B
:102C3000110519F0F801D183C0830FB6F8940F92F3
:102C4000809135028F5F8093350280919E01909133
:102C50009F01892B09F091C0D0939F01C0939E01E1
:102C600080913502813081F58EE092E00E94700CF7
:102C700087E192E00E94700C80E292E00E94700C6A
:102C800089E292E00E94700C85E092E00E94700C54
:102C90008CEF91E00E94700C83EF91E00E94700C29
:102CA0008AEE91E00E94700C81EE91E00E94700C1F
:102CB00085E092E09093E0018093DF018CEF91E05A
:102CC0009093DE018093DD01809133028F5F8093CA
:102CD0003302AE89809132028A1710F4A093320237
:102CE00029E02A9FD0011124A25FBD4F11960D90BB
:102CF000BC91A02DBD83AC8314968D919C911597AA
:102D00009F838E831496ED91FC911597CE010296C8
:102D10009383828315969C938E931497EE89E29FFA
:102D2000F0011124E25FFD4FFB87EA8780818F5F0E
:102D300080830F900FBE80913402882351F0E09180
:102D40009E01F0919F0196898E89981710F40E9438
:102D50007E0C81E004C0C6010E945C138FEFDF91FE
:102D6000CF911F910F91FF90EF90DF90CF90BF9088
:102D7000AF909F908F907F90089580913402811141
:102D8000A3CFE0919E01F0919F0196898E898917CA
:102D900008F49ACFD0939F01C0939E0195CF0E94D3
:102DA00093111895E6E3F2E01382128288EE93E025
:102DB000A0E0B0E084839583A683B7838BE091E0A5
:102DC0009183808385EC90E09587848784EC90E004
:102DD0009787868780EC90E0918B808B81EC90E0E8
:102DE000938B828B82EC90E0958B848B86EC90E0C9
:102DF000978B868B118E128E138E148EE3EDF2E07C
:102E000016821782108611861286138614861586FE
:102E100016861786108A118A128A138A148A158ACE
:102E20000895789484B5826084BD84B5816084BD42
:102E300085B5826085BD85B5816085BD80916E0058
:102E4000816080936E001092810080918100826089
:102E500080938100809181008160809381008091C6
:102E600080008160809380008091B10084608093B5
:102E7000B1008091B00081608093B00080917A00B1
:102E8000846080937A0080917A00826080937A00D7
:102E900080917A00816080937A0080917A008068C6
:102EA00080937A001092C1002091050130910601B3
:102EB0008FEF98E0821B930B9093020180930101A6
:102EC0000E94A80805ED11E020E040EC50E061E927
:102ED00071E08FE495E10E94A215813009F0B3C042
:102EE0000FB6F8940F928091D8019091D901892B57
:102EF00009F04FC088EC91E00E94700C8FEB91E0DC
:102F00000E94700C88EC91E09093BE018093BD010B
:102F10008FEB91E09093BC018093BB0181E590E041
:102F20000E948415EC01009781F14F969983888364
:102F30008AE08B8F85E08C8F0FB6F8940F92888192
:102F400099812B8D4C8DBC01249F600D711D112426
:102F50007D836C831A8E9B838A832150330B429F1F
:102F6000B001439F700D1124860F971F9F838E839E
:102F70008FEF8D8F8E8FCE0108960E94700CCE0140
:102F800041960E94700C0F900FBED093D901C09350
:102F9000D8010F900FBE8091D8019091D901892B53
:102FA00009F451C001ED11E023E045E550E066E988
:102FB00071E08DE693E10E94A215813009F043C0D3
:102FC000F8942FEF3FEF3093D4012093D3018093F7
:102FD00034021092DB011092DA01A89588E190EC9E
:102FE0000FB6F894A895809360000FBE9093600090
:102FF000A0919E01B0919F01CD91CDBFDD91DEBF2B
:10300000FF91EF91DF91CF91BF91AF919F918F9100
:103010007F916F915F914F913F912F911F910F91F0
:10302000FF90EF90DF90CF90BF90AF909F908F90E8
:103030007F906F905F904F903F902F901F900F90D8
:103040000FBE0F900895809100010E94A808C0E073
:10305000D0E00E94D8042097E1F30E944701F9CF05
:103060000F931F93CF93DF938230910510F482E08A
:1030700090E0E0911B03F0911C0330E020E0B0E011
:10308000A0E0309799F42115310509F44AC0281BB6
:10309000390B24303105D8F58A819B816115710582
:1030A00089F1FB0193838283FE0111C0408151812C
:1030B0000281138148175907E0F04817590799F41E
:1030C000109761F012960C93129713961C933296F8
:1030D000CF01DF91CF911F910F91089500931B03B2
:1030E00010931C03F4CF2115310551F042175307FB
:1030F00038F0A901DB019A01BD01DF01F801C1CF60
:10310000EF01F9CF90931C0380931B03CDCFFE01F9
:10311000E20FF31F81939193225031093983288361
:10312000D7CF2091190330911A03232B41F420911A
:1031300003013091040130931A0320931903209165
:103140000101309102012115310541F42DB73EB73F
:103150004091050150910601241B350BE0911903A4
:10316000F0911A03E217F307A0F42E1B3F0B281768
:10317000390778F0AC014E5F5F4F2417350748F0F0
:103180004E0F5F1F50931A0340931903819391933D
:103190009FCFF0E0E0E09CCFCF93DF930097E9F082
:1031A000FC01329713821282A0911B03B0911C0381
:1031B000ED0130E020E01097A1F420813181820FF1
:1031C000931F2091190330911A032817390709F02A
:1031D00061C0F0931A03E0931903DF91CF91089532
:1031E000EA01CE17DF07E8F54A815B819E014115B0
:1031F0005105B1F7E901FB83EA8349915991C40F65
:10320000D51FEC17FD0761F4808191810296840F30
:10321000951FE90199838883828193819B838A83A7
:10322000F0E0E0E012968D919C9113970097B9F52C
:103230002D913C911197CD010296820F931F209101
:10324000190330911A032817390739F6309751F5C9
:1032500010921C0310921B03B0931A03A09319033E
:10326000BCCFD383C28340815181840F951FC8177F
:10327000D90761F44E5F5F4F88819981480F591FCC
:10328000518340838A819B819383828321153105F9
:1032900009F0B0CFF0931C03E0931B039ECFFD0118
:1032A000DC01C0CF13821282D7CFFC018827992777
:1032B000E89421912032E9F3293010F02E30C8F340
:1032C0002B3241F02D3239F4689404C00E947319F6
:1032D000820F911D219120532A30C0F31EF4909546
:1032E00081959F4F08957AE0979F902D879F802D1D
:1032F000910D11240895A1E21A2EAA1BBB1BFD01FA
:103300000DC0AA1FBB1FEE1FFF1FA217B307E407C4
:10331000F50720F0A21BB30BE40BF50B661F771F1C
:10332000881F991F1A9469F76095709580959095FC
:103330009B01AC01BD01CF010895EE0FFF1F059069
:10334000F491E02D0994FB01DC0102C001900D9283
:1033500041505040D8F70895DC0101C06D934150B1
:0A3360005040E0F70895F894FFCF05
:10336A000300001D038000000000007601D3000066
:10337A0001C30131010F0123010D0A00564D4450CA
:10338A00435F005F564D44504300564D4450455FDD
:10339A00003A323A00564D4450525F007C005F5664
:1033AA004D4450520A005F564D44504500564D4414
:1033BA0050565F317C315F564D4450560A00496E73
:1033CA00707574205461736B203100496E70757486
:1033DA00205461736B203200496E707574205461F9
:1033EA00736B2033004F7574707574205461736B5E
:0E33FA000049444C4500546D72205376630028
:00000001FF
